:400000000080002011000000750500007505000010B500F0B7FAC046F8B5244C1223236000F0EEFC224801F03BF8012000F008FD182000F0CFFB1F4A1F4B1A601F4D80260B
:40004000F6052E601E4A116802230B4313601D4A1D4B1A6000271D4B1F601D4A136808218B431360FA20C00000F066FC194800F0A7FB194A194B1A60194B1A4A1A6080214A
:400080004901194A1160194A1A6080221206184B1A60184B1F604122174B1A60013A174B1A602E6011232360F8BDC04630001040001BB7000600008004010B400C020B40F5
:4000C00078002E402D3E00007C002E4064F02E406CF02E40DC05000000BF5D00040301400000014041FF00800003014040FF008008010B4000010B401C01014004010140AC
:4001000010B572B60022244B1A6000240FE023486200131959000B00411889881A5AC31858880004104300F01FFA0134E4B2012CEDD9EE2212061A4B1A6099231B04194A5B
:400140001360194A1360194A1360194A1360194A117806230B43DBB213701022164B1A60164A174B1A602023164A1360C4218902154A1160154A1360154A1360D9221204C3
:40018000144B1A60C0221201134B1A60FFF744FF00F0DAF910BDC0466CF02E4024340100000002400001024000500F4010500F4030500F4000700F40000004400020D8000A
:4001C0000800044000010440080104401801044000030440080304400C03044010B5064C2378002B07D1054B002B02D0044800E000BF0123237010BD381000200000000002
:40020000AC320100084B10B5002B03D00749084800E000BF07480368002B00D110BD064B002BFBD09847F9E7000000003C100020AC320100A00B00200000000030B585B0D1
:400240000C0027283FD015D8222877D00AD8032868D002D8012824D09BE0042866D0212868D096E0242871D06CD3252872D026281ED08EE0422800D17CE007D829286DD07D
:4002800025D32A286ED0412870D082E04C2828D002D8432872D07CE0572873D0FA2875D077E03D4800F046FA002000F07FFC70E03A4B1B78042B6CD1002000F077FC3848C5
:4002C00000F038FA65E0374800F034FA61E00022354B1A70354800F02DFA002000F066FC57E0334800F026FA6D466B46220013CA13C312681A6040236A46002101A80EF0BD
:400300000DFCAB89132B05D1019B1B785A1E9341254A1370274A13785078000218430DF0F5F936E0244800F005FA32E0234800F001FA2EE0224800F0FDF92AE0214800F059
:40034000F9F926E0204800F0F5F922E01F4800F0F1F91EE01E4800F0EDF91AE01D4800F0E9F916E01C4800F0E5F912E01B4800F0E1F90EE01A4800F0DDF90AE0194800F0F9
:40038000D9F906E0184800F0D5F902E0174800F0D1F905B030BDC046B0320100E4210020B8320100C032010054100020C8320100D0320100EC210020D8320100E032010011
:4003C000E8320100F0320100F832010000330100083301001033010018330100203301002833010030330100383301004033010010B5044800F09EF90122034B5A7000F0DD
:40040000FDFD10BD483301005410002000B585B001A912230B81064B019301238B80054A13785078000218430DF024F905B000BDD3210020EC21002010B562B6384800F073
:400440005DFB00F0FDF8374800F074F9364800F071F9012000F00CFE012000F015FE334800F0F8FD324800F065F901F047F9314B5B78002B31D000222E4B5A7000F0B6FD70
:40048000002815D100F0AAFD002808D000222A4B1A702A4800F04EF9FFF7B8FF1DE00122254B1A70264800F045F9FFF7AFFF14E000F094FD002808D000221F4B1A701F48D4
:4004C00000F038F9FFF7A2FF07E002221A4B1A701C4800F02FF9FFF799FF032001F006F900F0E7FD040003F011F9042801D0062808D1002000F0BCFD012000F0C5FD00F0C8
:4005000053FA09E0022807D0012000F0B1FD002000F0BAFD00F03AFA200000F0CEFDA4E73D020000C4330100D0330100F1030000E833010054100020D3210020FC33010061
:4005400004340100143401000323044A1360044A13600022034B1A607047C0463000304030003140000E3F4010B50A00002101F085F810BD10B501F03DF803680C2B00D153
:40058000FEE7FEE770B50F4E0F4D13E029686B68AC68002202E001C901C30432A242FAD1E868002202E0002102C304328242FAD11035013E002EE9D101F022F8FFF73CFF0A
:4005C000FEE7C046010000003C36010010B50E4A136801218B43136000230AE0032B03D89A000A49505800E009489900094A885001332F2BF2D9FFF783FD034A1168012348
:400600000B43136010BDC0460000104000000000750500000000002010B500F075F810BD10B500F01DF810BD10B5044A1368802109060B431360FFF7EFFF10BD00002440A2
:4006400010B5064B1B78002B04D1FFF7E9FF0122024B1A70FFF7E8FF10BDC04658100020154A164B1A600023154A13601549164A1160164A16490A600720164908601649ED
:400680000B6006381549086015490A60154A13600421154A1160154A1360154A1360154A1360154A1360154A1360154A13601268144B1A807047C0460B00000200002440AF
:4006C0004000244001000A00480024400700008000032440040324401003244044002440000224400402244050002440880E2440C80E2440480F2440080F2440C80F2440FE
:40070000880F24405A100020064A1168064B0B40902109040B431360044B1A88044B1A607047C04600010240FFFF0FFF5A100020880F244070B50500002402E000F0C0FC29
:400740000134285D0028F9D170BDC04610B5040000F0AFFCE304E022920313401900054C2368054A1A400B001343236000F0A5FC10BDC04600010B40FFFFC7FF024B1B689F
:40078000012018407047C0460C002E4001BE704710B5040006E0084B586800F081FC074B9C46644480231B029C42F4D8024B9868604300F075FC10BDA40B00200080FFFF33
:4007C00010B5034B1B7B584300F06AFC10BDC046A40B0020F0B557464E46C0B483B0040000F067FC0190E71E2D2F74D83F4B1B78DBB29C4208D83E4B1B78DBB29A463D4B32
:400800001B78DBB2994631E03B4B1B78DBB29C4208D83A4B1B78DBB29A46394B1B78DBB2994623E0374B1B78DBB29C4208D8364B1B78DBB29A46354B1B78DBB2994615E0E4
:40084000334B1B78DBB29C4208D8324B1B78DBB29A46314B1B78DBB2994607E02F4B1B78DBB29A462E4B1B78DBB299462D4BDE5D2F2E09D92A2C07D919222B4B1A600520D3
:4008800000F00EFC192503E0274B1D683F231D40B54206D9234BDA5D234B1A60052000F0FFFB1F4B9C4664442378DBB21F4A13601F4B52461A601F4B4A461A600520FFF7F2
:4008C0007FFFB5420AD2174BDA5D174B1A60052000F0E6FB02E00020FFF758FF019800F0ECFB03B00CBC91469A46F0BD40F3FF0F41F3FF0F42F3FF0F43F3FF0F44F3FF0F4F
:4009000045F3FF0F46F3FF0F47F3FF0F48F3FF0F49F3FF0F4AF3FF0F4BF3FF0F4CF3FF0F4DF3FF0F303401002CFF0B4028FF0B401CFF0B4020FF0B4010B504000F4A116865
:4009400001230B4313600E4A0E4B1A600E4A1368802109020B431360002809D100200CE00120FFF72DFFFFF709FF002804D1013C002CF5D1102000E0002010BD60F02E40F1
:400980000220000078002E4010002E4010B500F090FB044A136804218B43136030BF00F08CFB10BD10ED00E030B583B000F081FB04000E4A13685B005B0813600C4B1B88AC
:4009C0009BB20C4A13600C4A116804230B4313600A4D2B6801930220FFF7B8FE30BF019B2B60200000F069FB03B030BD00000B4052F2FF0F0C000B4010ED00E000010B4097
:400A000010B50D4B1A6801218A431A601A68022082431A60094A10683024A043203C204310601068093CA043014311601A68802109060A431A6010BD00F02E4000FF2E40B4
:400A400070B51D4B1B6801241C40002802D0012816D02BE0184B19680122914319601968022081431960154B19682E3081432038014319601968093881430A431A6018E040
:400A80000D4B1A6802218A431A600C4A10680725A84301431160116830208143103801431160196801220A431A6002E00020FFF76DFE200070BDC04600F02E4000FF2E40E2
:400AC00010B500F089FA10BD10B50024064B1C70064B1C70064B1C70FFF7F2FF054B1C70054B1C7010BDC046EF210020E8210020EE210020D4210020DC21002010B590B040
:400B00000400142220490BA800F0AFFD20231F4AD35C002B05D1FFF7D7FF012120231B4AD154002C2DD01A4B1C6008A805AA426006AB0893002101811B3119805980173924
:400B40001971082313701231694400F0B3FE002818D1104B0293104B0193052300930BABAE2212010D490E4800F0FAFD002809D101220C4B1A70073213210B480DF0B6FF5D
:400B800000E0012010B010BD603401005C100020D821002079020000003F0100C0000020010D0000E42100207434010010B502282CD81A4B1B78042B2AD1194B1B785B0788
:400BC00029D4002808D1174B3C221A860C3A596A0A805B6A5A800AE0012808D1114B96221A8696221201596A0A805B6A5A800E4B18700C4820300BF0ABFB00280DD1084A90
:400C0000117804230B43DBB2137006E0012004E00420FF3001E00420FF3010BDE4210020EF210020B80B0020EE2100207047C04603784078000218437047C04670B50500CC
:400C400083890F2B1FD1043031332A0000210DF065FF041E11D16868FFF7EAFF830706D50A4B1B68290082204000984705E0074B1B6829000620FF309847054A137801210D
:400C80008B43137000E00024200070BDD8210020EF210020024B00225A701A707047C046EC21002010B582B00400FFF7C7FF0A4B1B78DB070ED4002809D001A912238B705E
:400CC000A3890B80C87020680CF096FC02E020680CF01CFD02B010BDEF2100208379002B07D000200BE0C25C002A07D10133DBB200E00023052BF6D9002000E001207047FD
:400D0000F0B583B004000D00A04A117801230B43DBB21370272800D1C2E012D8062800D185E004D8012821D005287CD01CE1242800D1B1E0262800D1BAE0212800D013E1E5
:400D400089E0422800D1FBE006D8282800D1ABE0412800D1E0E007E14C2800D1FBE0FA2800D1FCE0432800D0FEE0ECE001AE0727377000237370300002F028FD3770012318
:400D80007370300002F022FD00F0ACFC804B1E683000FFF7A3FF00280CD0300000F0B2FC7B4E00213068FFF741FF30680121FFF73DFF2AE0774B1F78774B18788001FC2690
:400DC0003601020032403F2139401143734B1B781B03F822520213401943714B1B785B04FE22120413400B436E4E33701A0A72701B0CB370300000F085FC00213000FFF773
:400E000015FF01213000FFF711FF03200BF044F901A83F230370002343700BF05BF90422614B1A70A0E02A78604B1A709CE02B78002B00D098E06B78002B06D15C4B002255
:400E4000DA809A805B4A1A606B60504A137801218B43137088E04D4B1B789B0600D583E0554B1B78102B02D10522534BDA70534B187851490BF02EFA01AB1880002804D095
:400E80004F4B1B6801A936209847404A117801230B43DBB2137067E06A784A4B1A7063E00222414B1A705FE004223F4B1A705BE03D4B1B78022B57D0344A1278D20753D5B0
:400EC000324A1278520708D50322374B1A702F4A137804218B43137046E02C4A1278120708D50422304B1A70284A137808218B43137039E0032B37D104222B4B1A70324B5B
:400F00001B78002B30D10120FFF750FE00282BD10322254B1A7027E0284E02222900300000F0A3FB0022214B1A7031789E318900264B591801310432254800F096FB13E07E
:400F4000FFF7A8FE10E06988162900D9172128880CF05CFB08E02800FFF7A4FE04E01D4A117801230B431370084B1A7811231A4209D0064A137801218B431370104B1B68B6
:400F800029002000984703B0F0BDC046EF210020EC0B00207CF2FF0F7DF2FF0F7BF2FF0F78F2FF0FF00B0020E4210020E821002080100020A00B0020780C0020EC210020BB
:400FC000D8210020DC210020EE210020003F0100E0210020D42100207047C046024B1868000901231840704704000440024B1868400901231840704704030440034A1068AF
:401000002023184010604009C0B2704710030440014BD8647047C0460000002010B5040000F047F8044A13689B009B08A4071C43146000F042F810BD00E400E00822014BC9
:401040001A60704700E100E00822014B1A60704780E100E010B50400FFF7F6FF2000FFF7D7FF0320FFF7DAFFFFF7E8FF10BDC04604490A68D2B240239A43800118401043A5
:40108000086070470003044004490A687F231A40C301D8B2104308607047C046000304400230800803D00138FDD1C046C046C0467047EFF3108072B6704780F31088704792
:4010C000044B1B681F221340082BF9D0024B18607047C04608022440400224400160704701607047324B1A781202324B1B781A43314B1B781B02314909780B4330498B427D
:4011000001D1072A06D0D42109018B4206D1042A04D102E02B4B042200E02A4B2A490B602A4B1A602A4B1B781B022A4A1278134380229201934202D0002B02D002E0264BEB
:4011400000E0254B254A1360254B1B781B02254A12781343244A934205D0244A934204D0052B05D103E0224B02E0214B00E0204B204A1360204B1B681B09204A1268AA2A09
:4011800015D1012B13D9164B1B780E2B0FD11C4B1B781B021B4A127813431B4A13601B4B1B781B021A4A127813431A4A1360704759F1FF0F58F1FF0F5FF1FF0F5EF1FF0F9E
:4011C000580B0000580D00006C002E4074002E405BF1FF0F5AF1FF0F0220000078002E405DF1FF0F5CF1FF0F0F0F000005050000050F000080002E40EC0F00F0E00F00F005
:401200006DF2FF0F6CF2FF0F84002E406FF2FF0F6EF2FF0F94002E4010B5FFF7D1FA10BD10B5FFF7B5FA10BD10B500F04BF810BD10B500F04FF810BD10B500F04BF80348A9
:4012400000F02AF8002000F02DF810BD0113000010B5024800F046F810BDC0460113000000487047020200002B2070472B2070472B2070472B2070472B2070472B20704713
:401280002B2070472B2070472B2070472B2070472B2070477047C046014B18677047C0460000002010B50400FFF703FF044A1368C0218B43A4011C431460FFF7FEFE10BD4F
:4012C0000CE400E080225201014B1A607047C04600E100E080225201014B1A607047C04680E100E010B50400FFF7F4FF2000FFF7D3FF0020FFF7D6FFFFF7E4FF10BDC046FB
:4013000010B511F0BFFF10BD002243088B4274D303098B425FD3030A8B4244D3030B8B4228D3030C8B420DD3FF22090212BA030C8B4202D31212090265D0030B8B4219D379
:4013400000E0090AC30B8B4201D3CB03C01A5241830B8B4201D38B03C01A5241430B8B4201D34B03C01A5241030B8B4201D30B03C01A5241C30A8B4201D3CB02C01A52412A
:40138000830A8B4201D38B02C01A5241430A8B4201D34B02C01A5241030A8B4201D30B02C01A5241CDD2C3098B4201D3CB01C01A524183098B4201D38B01C01A524143097E
:4013C0008B4201D34B01C01A524103098B4201D30B01C01A5241C3088B4201D3CB00C01A524183088B4201D38B00C01A524143088B4201D34B00C01A5241411A00D201468D
:40140000524110467047FFE701B5002000F0F0F802BDC0460029F7D076E7704703460B437FD4002243088B4274D303098B425FD3030A8B4244D3030B8B4228D3030C8B4296
:401440000DD3FF22090212BA030C8B4202D31212090265D0030B8B4219D300E0090AC30B8B4201D3CB03C01A5241830B8B4201D38B03C01A5241430B8B4201D34B03C01ADA
:401480005241030B8B4201D30B03C01A5241C30A8B4201D3CB02C01A5241830A8B4201D38B02C01A5241430A8B4201D34B02C01A5241030A8B4201D30B02C01A5241CDD230
:4014C000C3098B4201D3CB01C01A524183098B4201D38B01C01A524143098B4201D34B01C01A524103098B4201D30B01C01A5241C3088B4201D3CB00C01A524183088B4258
:4015000001D38B00C01A524143088B4201D34B00C01A5241411A00D201465241104670475DE0CA0F00D04942031000D34042534000229C4603098B422DD3030A8B4212D31F
:40154000FC22890112BA030A8B420CD3890192118B4208D3890192118B4204D389013AD0921100E08909C3098B4201D3CB01C01A524183098B4201D38B01C01A52414309D7
:401580008B4201D34B01C01A524103098B4201D30B01C01A5241C3088B4201D3CB00C01A524183088B4201D38B00C01A5241D9D243088B4201D34B00C01A5241411A00D267
:4015C0000146634652415B10104601D34042002B00D54942704763465B1000D3404201B5002000F005F802BD0029F8D016E770477047C046014B18687047C04634100020D5
:401600000E4B70B500251E000D4CE41AA410A54204D0AB00F35898470135F8E711F0FCFF084B00251E00084CE41AA410A54204D0AB00F35898470135F8E770BD2436010074
:4016400024360100243601002C36010030B50024A24208D0035D651C0C5DA34201D0181B02E02C00F4E7002030BD002310B59A4203D0CC5CC4540133F9E710BD030082180E
:40168000934202D019700133FAE77047134A1088810703D08107890F401A001D11791030484381B25088820703D08207920F801A001D800040180A494030098980B2CA077A
:4016C00001D0503080B2890706D504495422091F09785143081880B270470000840C00209410002010B501F06BFF10BD10B501F06DFF10BD10B501F07FFF10BD10B500F0ED
:401700005BFA10BD10B50749044609780220002907D1204601F0C8FF002802D120460AF0BFFD10BD200E002070B504460120002C12D02368002B0FD0616800290CD0074DDF
:4017400006222889208118462968FFF78EFF6968606809780170002070BD000094100020FFB585B0002768460E9D07734F481C460078002802D0082009B0F0BD10990F98B5
:4017800001900095029105A807C800F007F90028F2D16946264603AB84460873002C19D0002115E08A00B75A082F09D990198078002805D0083FB7521878401C187005E0E5
:4017C000002914D00027B75290198770491CC9B2A942E7D360460028CED10F98002809D0109901F09DFA002804D00120C4E701208446EFE701F000FF2D48002141608160B0
:401800000599016021888180022D07D3A1798171A17AC171A1890181218A418100211EE0481C19E082008B00A75AE65ABE46BE4211D26F463E80B4461E190296B678BE703B
:4018400001967646E6521719029EBB78B3706646A652019EBE70401CA842E3D3491CA942DED3134822460C3000906846037B0799069800F01BF90028B8D168460B4C007B1B
:4018800060700B480C3001F0E7FE0028AED1084907480C3107F0D4FD0028A7D107F0EEFD0028A3D10121217066E700007E0C002088100020F8B5054636480F4600780028BC
:4018C00002D002242046F8BD002F60D000243249002D16D02A89D0070DD02868002808D003881B3BE12B04D24088FB2801D81B2801D2012409E0900707D56868002804D1E2
:40190000F7E70020088108604860002CDAD122482E8906811F481B21801D01804180042101711C490020891C0870F00705D019480622801D2968FFF798FE1749B00703D5D8
:401940006A68144812788270124D0E46AD1D281F0D60486001F0CEFE284601F0BDFE30890EF0ECF930890DF0D5FB28880DF0D8FB30890EF04DFB03461033FFF787FE1F2125
:40198000C018890140183880A91F88809AE7012498E700007E0C002094100020FFB58446384F1C460020BB883F78054602460646002F11D100290ED0029999420BD36146DF
:4019C000002908D0002C06D00A99002906D02E4B0B99994202D2012004B0F0BD002144E0AB001F19BF78002F3BD0E35A002B38D07B43591889B22B0000F04AF805041016F5
:401A00001C253100A7782388BC46FF27233BEB37BB4222D26346032B1FD322E0A388002B1FD0302B19D31CE02389002B19D0282B13D316E0A289002A13D01346134F233B3E
:401A4000BB420AD20DE0268A002A0AD033460F4F233BBB4201D2964203D901200EE0002001E000280AD16D1CEDB2099B9D42B7D31C2463435B1802998B42ACD89642AAD84C
:401A8000AAE700007E0C002079020000BAFF000030B47446641E2578641CAB4200D21D46635D5B00E31830BC18470000FFB583B0002469460C801F4606468C80002806D0F6
:401AC0000598002803D004983043800701D0012466E0002FFBD03449049809888842F6D3FFF7B6FBFFF7A4FB00F016FC002855D100F07EFD002851D12C49084601F044F913
:401B000005042D0C4AD12A480499066081800021C18007810C98007AC00704D0684601F084FD040007D10C98007A800703D501A801F084FD0446BF1DFEB2002C20D1314631
:401B4000059800F05DF804001AD10EF06FFA040016D16A461088928808368518144AF1B29088D288AEB29319984207D3401B801A80B201F0F9FB050007D000E0FF250124C1
:401B800000F062FA002D04D008E0F8B200F01CF9F6E700F085FA07490120087000F0CEFB204607B0F0BD0000820C0020ED1C0000A01000208A0C002010B50348007801289B
:401BC00001D101F073FA10BD8A0C002070B5084B0446DA889E8803205518B54206D8186880182060D8884018D880002070BD0000A01000200148008970470000A010002065
:401C0000F0B587B007460D4600208900009006916846FFF7DBFF844600285DD1304800990160002117E02E4B88001A680629115406D22C4C0419667882185670628805E09F
:401C4000C419203CA67A8218567022891B68C018491C4280C9B2A942E5D300242DE0601CC2B2059025E01E4FA30039689600581840887118039604904E88B04217D938463A
:401C80006F46FE80B6464F786E4677710297049F4F800168039F5E18767879184E700168764659184E800068029F18184770521CD2B2AA42D7D30598C4B2AC42CFD36046A4
:401CC000002809D168460699FFF780FF8446002802D1054900980860604607B0F0BD00008C0C002050360100900C00207047000010B5002809D005494A68002A05D0011F6C
:401D000008788000105801F0DDFA10BD8C0C002010B50446FFF76EFFC0B2801DA0420CD307484068002808D0A100405801F03CFA002801D00470001D10BD002010BD000011
:401D40008C0C0020F8B516460D460446FFF752FFC0B2801DA04203D20020C0430090F8BDB2B2E9B2684601F045FA0099481C03D0024AA000526811500098F8BD8C0C0020D7
:401D8000F8B50746FFF736FF801DC6B20A49002005460C680DE06178002907D06188B94202D32078FFF7B4FF002804D1241D6D1CEDB2B542EFD3F8BD8C0C002010B500287E
:401DC00001D0FFF795FF10BD70B506460948002504680BE06178002905D062882078121D0023FFF7AFFF241D6D1CEDB2B542F1D370BD00008C0C0020FFB581B00A9F160081
:401E00000C4620D000F0F6F8054604281BD0002F0CD03846FFF7B4FF20492A0151184860002810D03A460499FFF71FFC1B4928010E504618778101980570200406D47D2029
:401E4000C000444304E0FF2005B0F0BD6404640C00F0BEF80746042807D000F053FAA0420BD800F04FFA201A03E0204600F0AEFA0020F06035720020E6E700F043FA0090D1
:401E800000F0BAFA00980121001B009000F0F0F802493A0151180098C860E6E7AC100020F8B5042801D3FF20F8BD060116483418217A042903D0E068002802D017E00020C3
:401EC000F8BD00F01FFA054600F096FA00F0A0F804280CD001010C480F18F8680021451900F0C6F80020F860284600F06FFA6068054D002801D0FFF761FF04202072002041
:401F0000A8516081E060DAE7AC100020FEB500266A46304601232549050169180D7A042D02D0C96800291BD000211154401CC0B20428F0D300246846005D002830D01B4806
:401F4000210108184189476805680291002101604160042241810272C160002E02D015E01354E3E700F054F804280ED001010F4808180190C6680021304600F079F80198D1
:401F80000021C160304600F021FA0126002D07D038460299A847002F02D03846FFF70EFF641CE4B2042CC6D3FEBD0000AC1000200EB5002005216A4600901181508103483C
:401FC000694600680EF0B9FE0EBD0000940C0020074A0020010189180B7A042B02D0C968002903D0401CC0B20428F3D370470000AC1000200549002002015218127A042ADB
:4020000003D0401CC0B20428F6D37047AC10002030B50A4B04200A4C00210A011219157A042D06D0D268002A03D09A4201D808461346491CC9B20429EFD330BDFFFF000089
:40204000AC1000207047000030B50020074C05460423020111190B72A5504D60401C4D81C0B2CD600428F4D330BD0000AC10002030B5094C00231A011219157A042D04D0FB
:40208000D568002906D02D18D5605B1CDBB2042BF1D330BD2D1AF7E7AC100020002070471CB5002469460C70142001902346054A05480EF047FE04480068401C00D1FF247D
:4020C00020461CBD1D210000940C00203EB5124A0146FF2000230124126800290DD0012914D0042908D104206946009308814B8110460EF022FE80B23EBD684600930481F0
:402100004381694610460EF013FEF4E768460093048143816946EBE7940C002070B545890468416800890300FFF7B2FC08280509091E22282628002006F032F81EE0022983
:4021400008D0C8B22A4621460CF038FF2046FFF735FE13E002202A4621460CF02FFF2946204600F00DF809E000200EF0E5FA05E02046FFF7CBFE01E0FFF78CF8002070BDFC
:40218000014B0022DB681847980C002070B5448905680089022803D0032809D0FF2070BD2246094C0023A46829460120A04708E0FFF7A0FA241DA2B200232946022006F0FC
:4021C000F2FF002070BD0000980C002070470000024800214160018041807047980C002070B50C46002186B016460391012802D0022859D116E003A9012007F029F801284C
:402200001BD1039D324621462846FFF72EFA0095287801900220694608814E816846FFF7B5FF41E0214D002B686809D0049004A9022007F00DF801281DD0022006B070BD83
:40224000002812D0298840182146FFF70EFA28880024801980B228806988091D884206D12C801348FFF792FF03E00320E6E788421AD96C6018E004986860E278A378110219
:4022800019430B4A698000231060E3565360032313815181A1788170E178C1706178417021780170042028800020C7E7980C0020EC1000203EB515460C46022803D004280E
:4022C0000CD000203EBD0091019002206946088107484A8100680EF030FD07E00CF06EFE044B0022DB6829462046984701203EBD940C0020980C0020014AD1609060704744
:40230000980C0020034801688068081A0A21484300097047F810002010B5FEF78DFF4C2204490548FFF7A1F903490120C870002010BD00006C360100FC14002010B5FEF780
:4023400073FF10BD70B5134C2368002B08D0207B1149C20705D04008400020738868A08070BD88680B4AA18880B29268814203D90A4D691A091802E0814202D2411A5118B0
:40238000A160A080A0689842EAD30EF0F3FC00F013F870BDF8100020C0102E40FFFF000010B508461946FFF7A7FF10BD704710B5FFF780FF10BD00000348002101604160DD
:4023C0008160C16070470000F8100020024610B5FF20002A0CD0FFF7EFFF064C0321207B0843207310010A21FFF714F82060002010BD0000F810002000B504480A21806810
:4024000048430209FFF7D8FF104600BDF81000200248007B8007C00F70470000F810002010B54B490868002802DA4A4B01221A70022290430860484800694549C00B4031D3
:40244000096A0246C907C90F0A4259D0012000F0EDFA3F480E216C30FEF742FE3E4820218430FEF73DFE3C4814219C30FEF738FE3948FF21C131A430FEF732FE3648FF2180
:402480002F31B030FEF72CFE33483449BC30FEF727FE31483249AC30FEF722FE30492E48491CB430FEF71CFE2B482E49B830FEF717FE29482C49CC30FEF712FE26482B49EE
:4024C0000830FEF70DFE24482949A830FEF708FE214828498830FEF703FE1F4826498C30FEF7FEFD1C481921C9029030FEF7F8FDFEF7F8FDFEF7B4FEC0B2022812D01FE0C8
:4025000000290BD0002101420AD0114801216030FEF7E6FD0120FEF783FE97E70121F2E7FF2010BD15491648FEF7DAFD14481549001DFEF7D5FD124800210830FEF7D0FDDF
:4025400054200449C043891C0870002010BD000000F02E40A80C002000002E40320300002F3F00003102000010520000EC160000FA12000031D000003AE30000995600009A
:4025800080012E40F80F000070B50646581C80B245086D00002408E0304600F0C1F81055000A1119A41C4870A4B2AC42F4D3D80705D0D0182038D15CC47FD454C17770BD1C
:4025C00030B50A4C002100195B1E07E0541864782502545C2C430480891C89B29942F5DB994201D1515C018030BD000000102E4010B5FF2000F01AFA0F49FF2048700E48B6
:402600001021801D41800121417001700A490020C91C4870FFF704FF04000AD100F02EF907210648FEF75AFD044807211830FEF755FD204610BD0000A80C0020CC112E40B1
:4026400070B5002405465B1E0AE0284600F068F8010A161971702D1D1055A41CADB2A4B29C42F2DB9C4203D1284600F059F8105570BD000070B500210A4D5B1E0AE054185C
:4026800064782602545C344346193480001D891C80B289B29942F2DB994202D1515C4019018070BD00102E40F0B50599091FCFB200217E1E0BE0541864782502545C2C4303
:4026C000164D45192C80001D891C80B289B2B142F1DBFC0712D01C78515C24020F4A0C4381180C809C785D78001D210280B2294384182180001D80B2D9780CE059781A7873
:4027000009021143054A84182180001DD9789B78090280B2194380180180F0BD00102E40014940180088704700102E4010B50B490020487000F0A2F8002000F09DF90020B0
:4027400000F08AF907210648FEF7C8FC044807211830FEF7C3FC002010BD0000AB0C0020CC112E4010B50C48007801280FD100F093FF00F0DDF8002804D10848016A49084E
:4027800049000162054802213030FEF7A9FC02490020C91E087010BDAB0C002040F02E4010B50B46062812D006DC01280CD0032801D1FFF7BBFF10BD0A28FCD00B28FAD174
:4027C00005480078107010BDFFF712FF10BD1146184600F06DF910BDAE0C0020F8B5244DAC6A0127A007234E002816DA307806280ED1286A384328621F480069F903084352
:4028000081B21D481030FEF76BFC042000F00EF9174802212830FEF761FCE00718D000F07DFF01280FD1002000F0CAFF062000F0FDF81049FF20C91E48707078002802D1FB
:40284000686B384368630A4801212830FEF746FCE0050BD53078042802D1052000F0E6F80348FF2101312830FEF738FCF8BD000040F02E40AB0C002000002E4010B503213E
:402880002348FEF72DFC0120FEF7C6FC20483038406A204C80076178800F890001431C480C38FEF71DFC6078002808D0401E022181401820FEF798FEC000083800E0B820CA
:4028C00081B21548FEF70CFC1348032109021438FEF706FC10481149B830FEF701FC612189010F48FEF7FCFB0D480321001FFEF7F7FB0C490C48FEF7F3FB0B480B49603859
:40290000FEF7EEFB084801218838FEF7E9FB10BD70F02E40AE0C0020D8102E4090890000041E2E40FF0F000058122E40209000000449012009684907490F022900D0002002
:402940007047000000010B4000B5FFF7F1FF002805D009480168C908C900016000BD0748016A490849000162054801690122D2039143016100BD000000010B4040F02E4007
:4029800000002E400848017806290BD140780749002803D1486B400840004863C86A01221043C86270470000AB0C002040F02E400148007870470000AB0C0020024840789C
:4029C000022800D001207047A80C002000B50300FFF75EF8080D050D0B070507090D012000BD032000BD042000BD022000BDFF2000BD0000074A9168D26889B2064B92B224
:402A0000994204D105498A4201D1012100E000210170704780002E4033D000003FE300000149487070470000AB0C002010B50446FEF7FEFB072C01D9FF2C01D10248047047
:402A4000FEF7F2FB10BD0000AB0C00200149487070470000A80C002010B5064A012805D01921C9021046FEF73BFB10BD1D21C902F8E7000090002E4010B50A4A141D012884
:402A800008D009491046FEF72BFB08492046FEF727FB10BD04491046891CFEF721FB0349491DF3E788002E4031D000003AE3000070B50C460546FEF7D3FBC0B202280E496F
:402AC000287804D0FF2810D04C280CD810E0FF2809D10A4AD0680004800F032801D0087807E09069000A553803E00878207070BD4F382070087070BDAA0C002000002E40E0
:402B0000F0B50122002834D0002932D00424420600D00524792342065B06D21800D0641C034600221EE00C2516466E43124D00277519AF72104F002ABB51696007D0661EF9
:402B4000B24209D10D4E86197606760E05E05E06760E8027BE1B00E080269B198919521C2E81D2B2A242DED303480549006B002288611046F0BD00008413002079020000EA
:402B8000B40C002018B50020694608700A48006900280ED0132149014018047E684604704F21C900054800F05BF8A04201D0012018BD002018BD0000B40C00200811002066
:402BC000074900200C2242435218927A012A05D0401CC0B20628F5D3002070470120704784130020F8B50F000446164609D01A4D1A496868A04202D94018A04201D38E42A2
:402C000001D90120F8BD39462046FEF71FFD002820D0324639462046FEF727FD0E49F0B2012620318E7600210C220B4653430A4A9A1813895568EF18A74207D9641B1B1BD1
:402C40009672834206DAC01A1469C0B2491CC9B20629E9D30020F8BD8413002079020000034610B50020024604E09C5C2018521CC0B292B28A42F8D310BD000070B500F0E5
:402C80005FF8084C064A216907480D46FEF7EDFC05492846FFF734FFFFF774FF207070BD79020000B40C002008110020002070470020054A002902D0012902D002E0906061
:402CC00000E0D06000207047B40C002070B5084C154608460549E26889182A46FEF7C5FCE0684019E06028B270BD000008110020B40C00203EB50A226946FFF7E7FF044697
:402D000006480A2200686946FEF7A0FC002802D00020C0433EBD20463EBD0000B80C0020002802D0044A914201D2FF20704703494A6108610020704779020000B40C0020BE
:402D4000024800218160C16070470000B40C002070B5074C15460548A26880182A46FFF741FFA0684019A06028B270BD08110020B40C002010B503490A220968FFF7E8FFDB
:402D800010BD0000B80C002010B50F4A002313600E4A13600E4B18600E4801600E49012008600E490860000290600E490C4808600D4914300860FF381538506000F0BCF8DD
:402DC00000F0CAF9002010BDE80C0020D00C0020FC0C0020000D0020EC0C0020DC0C0020CC140020E00C0020F40C0020014610B50020002910D0094B1A689C685118A14227
:402E000009D25868196080188A0704D08A07920F891A091D196010BD002010BDD00C0020F8B50024164E671E321F3D463168136806E01422624310328A58521C1BD0641CF7
:402E40009C42F6D36A1C14D02C461422544322460C3288500C214843FFF7C8FF3168002808510AD031680020103408517068401C70602846F8BD2546E4E73846F8BD000035
:402E8000E00C0020F3B50026F64381B000281BDB1E490968884217D80299002914D01B4F142204463F1D54432546396810354859401C09D0FEF7BCF938682F1F4159C35925
:402EC000994203DBFEF7B0F93046FEBD214608310091465801590C20704308180C220299FEF7C3FB0948761C001D0068C159B14200D100260549009A091D8650086841594C
:402F0000491C4151FEF790F90020FEBDDC0C0020002803DB07490968884202D90020C043704704491422091D096850431030085870470000DC0C0020F0B500200D4A451E68
:402F40000346171F50600FE014260146714314680E1DA3510C461668083433511668083435511468401C635039688842ECD30020F0BD0000E00C0020F3B50026F64381B0CD
:402F8000002841DB2349096888423DD8029900293AD0204F142204463F1D54432546396810354859401C2FD0FEF742F93868415900292BD0211D009146580C2100597143DF
:402FC0000F46C1190C220298FEF74FFB11480021001D0068761C00590C34C0190160416081600C48001D00680159B14200D100260849009A091D865008684159491E4151AE
:40300000FEF712F90020FEBD3046FEBDFEF70CF9FAE70000DC0C0020FEB504460D4600201E49089E0860471E009001900290002C11D0486885420ED2002A0CD0002E0AD032
:40304000642E08D808460C3001681C2068430C18207A002801D03846FEBD0120226020721846FFF7DDFE6060401C13D06681A6810A4827610C3067610179A94200D2057118
:403080000021684601810A462846029B00F040F82846FEBD00202072DDE70000E80C002038B50124009400F039F838BDFEB50027164EFF433D4600240EE01C203168604340
:4030C0000818017A002906D04068FFF721FF002801D0254603E0641C3079A042EDDA681C12D01C2130684D434419FEF7A1F869466068FFF741FF0546FEF796F8002DD9D157
:40310000216868468847D5E7FEBD0000F40C002038B50024009400F001F838BD1FB500220C49541E0A60002811DB496888420ED808491C220C31096850430818406801A991
:40314000FFF7A0FE401C02D0002004B010BD2046FBE70000E80C0020F0B50021114A4D1E174611710C3F0B46BD6016E008461C2460431668041D3551146806462350146869
:403180000836A3551468361DA353044616680A34335318301468491C255078688142E5D30020F0BDF40C002038B500210091002811DB0F49097888420DDA0D4D04010C35C5
:4031C00029680859002807D0201D0818694600F06FF9002801D0002038BDFEF729F828680F34015D491E0155FEF71EF8009838BD040D0020F7B582B0002502986E1E066010
:403200002E48D21C024017462D4A2C4610460C380178106805E02301C358002B0FD0641CE4B28C42F7D3711C28D03401211D40180191039900F02AF900281FD101E0264645
:40324000F1E71F48016820460C300F521C480399026820460E30115419480399026820460F3011540398784300F0A0F8144900280968085102D00024009011E001251AE0FB
:403280000F48016801980818009900F02CF9002801D0012502E00098C0190090641CE4B203988442ECD3002D05D10298066004480179491C0171284605B0F0BDFCFF000044
:4032C000100D0020F8B50D4600216A468C461180002839DB23490978884235DA214B04010C3319680A59002A2ED020460C300B5A801C0E5C184670438018954224D3854254
:4033000022D2002006E007465F43BF18AF4206D0401CC0B2B042F6D36046002814D0114E271DC8190C366A46294600F006F900280AD168460088012808D030682946C019DD
:4033400000F0D1F8002803D00120F8BD0020F8BDFDF76EFF30680F34015D491C0155FDF763FFF3E7040D0020F8B50F46002400F031F8002817D10C4900220B460C334A6038
:403380000EE021011D680E466A501D680C36AA53B61C1D680F31AA551D68641C6A54E4B2BC42EED31A71F8BD040D002000280BD0C01C074A8108506889005388411899427E
:4033C00003D89368516018187047002070470000040D0020F8B5064600200F4D009029700C0121466846FEF7F1FB00280CD129460C3100980860301B001F84B22146684650
:40340000FEF7E4FB002801D0FF20F8BD6C800098A8600020F8BD0000040D0020F8B5002827DB19490978884223DA174C05010C342168485900281CD028460C30085A009055
:4034400028460E300E5C401C0E5420682F1DC01900F064F800280CD12068002445590EE0094829460C300068C01900F03CF8002801D00120F8BD00982D18641CE4B2B44229
:40348000EED30020F8BD0000040D002030B50D4604000BD0A800FFF789FF6060002805D000202570C0436080002030BD012030BD70B50D46040005D0002D03D00220205EA7
:4034C000002801DA012070BDFDF7B2FE0221615E60688900405828606088401E6080FDF7A3FE002070BD70B50D46040007D0002D05D002212078615E401E814201DB01208F
:4035000070BDFDF795FE6088401C00B26080616880000D50FDF788FE002070BD10B5040009D0227800216068FEF7A8F80020C0436080002010BD012010BDF0B500231D46D1
:40354000002802D00224045F0AE00120F0BD46689F00F6598E4201D1012503E05B1CDBB29C42F4DA15700020F0BD00000148007870470000180D00207CB505460024FEF775
:40358000B9F8A8796946087000A8062229460130FEF76BF80021684605F0DAF80C2806D0072806D01F2806D0122806D006E0022404E0042402E0272400E0012420467CBD8F
:4035C00001480121417270470816002010B502280BD0032802D0042809D102E000F07EF905E000F029FAFF2801D100F039FAFFF7DFF9FFF7EBF910BD10B500F061FAFFF713
:40360000D7F9FFF7E3F910BD70B504460025FEF771F8002C06D0A079012803D8214602F0C7FE00E00125284670BD01460120002902D05020088000207047000001460120B1
:40364000002905D0034854220078504308800020704700001A0D002010B502460D49FE204870032410460DF08BFE002810D10DF02FFE00280CD105F047FE002808D100F03B
:4036800015FC002804D105F009FB002800D10024204610BD180D002002480021018280210180704700102E4070B50025044600280ED0A07901280BD8FEF71CF8A079002820
:4036C000204602D003F054FA03E003F029FA00E00125284670BD0000014610B50120002904D006220248FDF7C0FF002010BD0000240D002001460120002903D008780249FB
:4037000008700020704700001A0D002010B5FFF74FF9012801D1FFF751F910BD0148007A704700000816002038B504460120002C20D0617801291DD800290BD0FF25E53582
:40374000FDF7D8FF0C4828180088C0B22070072803D00EE0FF25CD35F2E70020694608706846FFF747F969460878012801D108202070002038BD000000102E40014A002165
:4037800092681047180D002008B500226B461A7026280CD0094A342852680BD0352805D1900703D50021352005F08AFE08BD19462620F9E7D007F9D03420F5E7180D0020F7
:4037C000014908727047000008160020F8B504460120002C26D06178012902D92278092A20D8002905D0FF25E5352078092803D004E0FF25CD35F8E708202070FDF77AFF4D
:403800002078114F114E08280DD00020FFF734F970780128207810D00D4969180880FE2070700020F8BD0120FFF726F90720B8810549203188800120F2E7B88102482178D3
:4038400020308180EBE70000C0112E40180D002000102E4070B50E46050001D0002400E00C4C002C11D0E28A500609D5D107C90F022003F01BFAE08A40218843E08204E015
:40388000D107C90F012003F011FA3146284602F0EBFE70BD68150020F8B50546002004460D4E009013E022466946284601F052F90098002801D00DF045FDA878214602F065
:4038C000B5FCA878214602F0A3FC641CE4B2308AA042E8D8F8BD000034160020F8B54E4CFFF766F8012847D14C480078002843D002F042FE00283FD004F0B0FB00283BD010
:40390000474E7078C00703D000F040FD012833D0307E00287DD17078002500285BD0000706D540488089070B00F02EF9384370D13B484178684604F0D9F9217A3A4CA27850
:403940008918C9B2814262D802F016FE002860D0344860300789324E203602F057FC6846008802F081FC02F01DFD30490988884203D10120FFF75AF84BE02D49012008701D
:403980002748807B00281DD0002F1BD04036F07E002817D123486030008821494000C031498981420AD26078002807D103F0ACF92049088A032212021043088220780028AA
:4039C00000D0257002F086FC0120FFF729F800F049FC174C15E002F0CFFD002819D0102402F0E0FC214602F0C9FB02F03DFC104C0120207002F06EFC0020FFF711F800F098
:403A000031FC20780128B4D1FEF79EFF25700020F8BDFF20F8BD00003C150020A80C002048150020A0102E403E0D0020500D00202A0D0020E0112E4010B50848FF244078D5
:403A4000002809D102F098FD012805D1FEF78AFE0720FEF7EBFF0024204610BD4815002038B5FEF7A5FF012801D0002038BD02F083FD00280AD0114C6078C00703D000F09F
:403A800085FC012802D0207E002801D0FF2038BD617800290FD0684604F028F9022806D96846008802F0E0FB012002F01DFC0320FEF7BCFFD9E70020F7E7000048150020F5
:403AC00038B51E4CFEF774FF042813D0052811D0062812D003282AD007280AD100206946087002460120FEF75BFEFEF761FF0128FBD138BD00F0D6FB38BD02F00DFC00F0CD
:403B0000D1FB02F089FC8007800F0228F4D10C4841880029F0D05B21095D0029ECD101210170A07D0140022003F0C0F838BD02F0F7FB0120FEF77AFF38BD000068150020B7
:403B40003E0D0020F8B50646002403F01DF90546304603F033F903460A480021068A0DE001228A401046174628401F40002803D0002F01D1224394B2491CC9B28E42EFD816
:403B80002046F8BD3416002070B500252C460A4E03E0002C01D0002000E030460079002803D02046FFF7CEFF0543641C2406240EEFD0284670BD0000681500201CB500206D
:403BC000694648706846FFF7AFFD01AA69460A20FEF7E6FD6946042008561CBD70B50D4601F09EFB04000BD02079002808D0FDF781FDE178A0782A4602F0BCFD002070BDE3
:403C0000022070BD01480079704700003C1500204030C07E002800D00120704700B500F001F800BD902148430749084A40186030417F491CC9B24177D289914201D3002131
:403C40004177C8B270470000481500203416002013B501F065FB04000BD001F01CFF002807D0214601AA0A310620FEF799FD00201CBD02201CBD000010B50C4601F050FB2C
:403C800000280AD001F007FF002806D0224604490A20FEF785FD002010BD022010BD000029150020F3B581B0074601460026029803F062F80446002F01D0002500E0154D52
:403CC000002D21D0284601F061FB032C04D13946029803F0ADF806463846029902F098FA032C06D0002C10D00121384601F054FC03E03146384603F0ABFA284602F076F91C
:403D00000221284602F08CF9FEBD3846029902F07FFAFEBD6815002010B5044600F04CFA002804D103F076FF002801D00C2010BD2078611C02F024FEFF2801D01F2010BD1B
:403D400002F06AFEFF280AD02178621C02F0E8F9044821780068026B601C904710BD072010BD0000640D002010B503F053FF002801D00C2010BD02F0E5FD03480068C06AF2
:403D80008047002010BD0000640D002070B50D46044610210DF016FA1021601806460DF011FA334610221946204603F061FF102130460DF007FA02202870204604F0A4FEA3
:403DC00070BD0000FEB504464078217802028006870FE0781143A5780E050002360D0543304601F09DFAEAB23B4621460096019000F0FAF90006000E14D10B482246006817
:403E00000199436928469847C0B2FF280AD10198EAB24030817EFF23491C81762146019800F0E1F8FEBD0000800D00200020704710B5044603F0EEFE002801D00C2010BD71
:403E40002078611C02F09CFDFF2808D002F0D0FC044821780068426B601C904710BD1F2010BD0000640D002010B500F06BF904F015FF002010BD10B5044600786178E27866
:403E80000843A17811430843217908436179084305D003F0B1FE002803D00C2010BD122010BD204602F064FE002010BD10B5FDF7D7F902F08BFF044804F010F802F0A2FC07
:403EC000012000F003F810BD10150020F1B586B003A8009005A8019028489F22017B114001736846FDF720FC002845D169460989C90705D0224806990068C26868469047DB
:403F000069460989890706D5002835D11D480068816A0698884700282ED11B4E0025757075737571F575357675767575B570F570B5713746F5730120D03738731F20F88011
:403F4000FF2130467972A0300176457600F028FB00242046069901F049FD002803D1641C2406240EF5D0FD720749BD72B573C0310D704D704D600D7207B0F0BDFC140020AD
:403F8000800D0020640D00204815002070B505460E46084602F0F8FE0446304602F00EFF0121A9400A46224001400A4301D0012070BD002070BD10B50446084602F0FEFE8B
:403FC0000121A140014201D0012010BD002010BD10B5FEF7EDFC032804D102F0A1F90120FEF724FD10BDFEB51C4616460F46054601F0FCFFA878FFF711FE02460190334628
:4040000039460094284600F00DF8002808D1A8780199FFF71FFCFF2C02D138460DF092F9FEBD0000FFB585B005460E980C46FF2810D02B49C00009680A5840180179C0793A
:404040005278814201D9012601E09006860F6846038108E06078A1788006860FE0780002014368460181284601F046FD070007D021462846079A00F001FD384609B0F0BDEA
:40408000304600F0AFFD04AE0346039002AA29460096204600F019FC3C20405D002818D0284601F029FD012813D0684600890096C0B20190A878231DFF22079902F088FA45
:4040C00068460089039BC2B2A878079902F0CCFDD3E7684600890021C0B20091E9E700007C0D0020F8B5002600253046FFF72AFD07001DD090201149704340186030447F87
:4041000012E0601CFDF786F9CCB23846E040C007C00F07D02146304602F070F821463046FFF7C0FD6D1CEDB20548018AA942E8D8761C3606360ED7D0F8BD000048150020B8
:404140003416002010B502F05DFB0020FFF7BEFE0DF08EF9002010BDF8B5002400F010F90123012800D10124104F00203E4620360425082203E0002801D0002100E0314676
:404180000979002907D001290BD002290BD0114681402143CCB2401C0006000EEBD07C70F8BD1C43F7E72C43F5E700004815002010B5FFF7D1FF10BD10B5044604F0C0FE8E
:4041C000002802D1601C00F001F810BD1CB500240094062269460194FDF738FA002800D1122420461CBD0000F8B5044600201E4617460D46002C12D0002D10D0022E0ED0B5
:40420000032E0CD0002F0AD02179092907D0002905D013494A7F5A21095D8A4207D82089002104F0A6FB28460DF08CF8FF20E18F012905D1002F03D0012E06D0002E04D030
:40424000374301D10121E187F8BD0021E187069A2A70069A120A6A70AF70E970F8BD0000FC14002070B50E4CFCF723FF0546FEF79FFB062802D02078012803D02846FCF79A
:404280001CFF70BDFCF782FB2846FCF716FFFEF78FFB0628F5D020780028E5D170BD00002A0D002010B5FCF704FF0446FEF780FB012809D0FEF77CFB022805D0FCF766FB2E
:4042C0002046FCF7FAFEEEE72046FCF7F6FE10BD10B50B4681791943817103D08078114602F090FC10BD10B582798A43827102D1807802F09BFC10BD30B50C4C0220A28A87
:404300000B4B9978002901D0022906D11D785B78EB18282B01D9032002E0032900D101205105490DC0020143A18230BDC0112E40340D002000B500F029F8002807D001280F
:4043400005D0032801D0042801D0002000BD012000BD014600B50020C90701D000F010F800BD014600B50020C90701D000F008F800BD000001480068704700002C0D002017
:4043800001480088000A704720102E400448008B410501D5042070474007800F7047000000102E4001484068704700002C0D00207CB50446002568460570200610D5FFF72F
:4043C000E5FF01280CD101A801F0BAFF6846007900F058FB012001F071FE0220FFF7E8FE600712D50C48017901290ED10571684601F0A6FF6846007800F078FB0220FFF717
:40440000D7FE00212620FFF7BFF9044800680169204688477CBD0000380D0020640D002010B501460A4A007800241070FFF7A8FF0128084603D002F007FB204610BD00F096
:40444000E7F80400F9D1034801210170F5E70000340D00200816002070B50446FFF790FF002801D00C2070BDA27B01211F48002A827801D00A4301E05208520082706279AE
:40448000012A14D0C17849084900C170184D2868016820468847207901280CD06188208803F066F92080207904280FD015E0C2780A43C270EAE72868C168E01D8847E01D90
:4044C00002F042FB0B48008D208006E02868C168E01D8847E01D02F037FB074920798870204602F0BFFA002070BD000048150020640D0020FC140020340D002008B501786D
:40450000FFF73EFF814201D10C2008BD002914D0072069460870FFF70DFF012807D10121684600F0E5F8012801D0092008BDFFF7E3FE02F0CBFA012011E0FFF7FBFE012827
:4045400006D1684601F0FCFE6846007800F0CEFA02F0B2FAFFF714FF0028FBD10220FFF727FE002008BD000010B501460A4A007800245070FFF704FF0128084603D002F03F
:4045800021FB204610BD00F065F80400F9D1034801214170F5E70000340D00200816002038B568460CF064FE002801D01F2038BD01210098C90201804180002505714571BA
:4045C000857107214173857302F04CFA009C202200212046FDF752F825702A460021601CFDF74CF8204602F02FFA204602F0EAFA00980CF0A7FE062200210448FDF73EF887
:4046000002480C388560002038BD0000380D0020F8B5044600250D4800950078012806D068460CF025FE002803D007250CE00C250AE0074E009830602278611C401CFDF731
:4046400014F83168207808702846F8BD081600202C0D0020F8B5044600250D4800954078012806D068460CF003FE002803D007250CE00C250AE0074E009870602278611C61
:40468000401CFCF7F2FF7168207808702846F8BD081600202C0D00200346084800B5834209D8184600F03CFE002804D00089984201D1012000BD002000BD0000FF0E0000A2
:4046C000074A9179491C8906890E917138220A4092014907090E1143084302490840704748150020FF0E0000C006C00E70470000F8B507460E4600240D4803E0002C01D0CF
:40470000002500E005462979002905D0641C2406240EF3D00020F8BD0021204601F066F92E712046FFF7CCFF28813C700120F8BD6815002010B503F0CFFA0222002100F0FA
:4047400003F802F00BF810BD10B5094B40074907000F090F185A595A40185043C0086421FCF758FE002800D1012080B210BD0000B8360100F7B53D20405C88B015460C466D
:40478000002802D02878042802D200200BB0F0BD6946087200262046FFF73AFA012800D00126204603A938300191009023460327A17E34333246206A03F0AAFB02A808993E
:4047C00000900B46019120463A4603A9243003F02FFA02466846007A2870204601F0F2F81046D3E7FFB587B00C4605461078694608723D20005D1746002826D000262046F1
:40480000FFF706FA012800D00126204603A93830019100902346A17E34333246206A03F077FB02A80090291D019120462B1D03A924300A9A03F0FCF902006846007A388042
:4048400002D1204601F0BEF810460BB0F0BDF0B505463C20405C89B016460C4600280CD0307869460873002806D000272046FFF7CFF9012803D003E01F2009B0F0BD012700
:4048800003200890204604A93830019100902346E17E34333A46E06903F03AFB6846007B03A928180290009120462B46019504A92430089A03F0F0F902466846007B30704B
:4048C000204601F089F81046D7E7FFB505463C20405C89B016460C46002810D0084601F00BF901280BD0308869468883002809D000272046FFF78CF9012805D005E0002021
:404900000DB0F0BD0220FBE70127204603A93830019100902346E17E34333A46E06903F0F7FA291D2B1D07A8129A6D4607C5204603A924300C9A03F0AFF902466846808B59
:404940003080204601F048F81046D9E770B50C460646FFF75DF9012824D06079227900020243E079A37900020343607A921F0102207A0843E17A0D02A17A154C29433546F6
:404980004035A24207D20A38221F904203D2FF20F43083420DD91E202873304600F0C8FB1E2070BD00222421304602F027FE242070BDB07801F0BEFD012801D0002070BDC0
:4049C00028202873304600F0B3FB282070BD00007B0C0000002801D0002000E003484030C07F012800D0002070470000681500200146002049070ED50021084B03E000294A
:404A000001D0002200E01A461279022A04D0491C0906090EF3D0704701207047681500200146002049070ED50021084B03E0002901D0002200E01A461279022A04D0491C01
:404A40000906090EF3D07047012070476815002010B5044680346068002803D00CF086FC0020606010BD403041707047403081707047403001707047017170479200101805
:404A8000C166704770B53C2501F030FA040004D020460021433001F0EDFCFF222946204600F0E8FB002C02D0A07801F0A1F970BD10B5002801D0002000E00348002802D031
:404AC000008903F09DFF10BD6815002010B5002801D0002000E00448002804D00179072901D100F047F810BD6815002010B501F0FDF9002802D0807801F07AF910BD00202A
:404B00007047000070B50546008A00281ED01049F122097B1140C90618D5294640314A8A098A521C4A4392B2D10800D10121540801E0621A94B2A042FBD9FEF717FD012878
:404B400004D1298AA878224601F0CAFD70BD0000FC14002010B50023054C0B60248A944204D992001018C26E0A60C36610BD00003416002038B5044600200090A07900282F
:404B800014D14020015D052901D00E290ED168460CF07EFB002809D12046009902F00CFD03481021428B2046FFF792FB38BD0000FC14002010B50B4604460146184602F0D0
:404BC0006BF9002802D020460CF0C6FB10BD13B5044601AA11460620FDF7E2FD6846818861811CBD002800D10220704770470000F8B504462346401D543300909A1EA078BB
:404C0000911E01F0B9FB25464035A88A298A8000FCF700FC401E81B2688A884203D96982A07802F07DF8698A8C20015120460021433001F01FFC27480088E88103F04CF8CB
:404C4000E989891C8AB26179FFF77EFD01F086FD03F042F82A8A6179FFF776FD074601F071FD688A002806D01B49088A032212021043088202E0002002F046F8164880380E
:404C800001886E8A002E0CD0304648431349FCF7ABFC0004000C01D0401C80B21049488002E00F4800214180288A704381B2A07801F096FFFF2228374932B9B2134620466C
:404CC00002F05AFDE98AA07801F00AFFA07801F0BFFAF8BD80102E40E0112E40710200003E0D00207FB504468034616805460E46183108226846FCF7B8FC314620310822E0
:404D000002A8FCF7B2FC102168460CF05BFA6068102108300CF056FA60682B46083024331022694602F0A4FF7FBD10B504460821FFF7D9FA10212046FFF7D5FA20790528DE
:404D40001FD006281DD008281AD12189002003F0CFFD072020712046FEF75AFF014620464030012913D00E21017000210176204601F050F82046FFF76BFE2046FFF7C2FE37
:404D800010BD20890122002103F096FDE1E70521EAE70000FFB581B01F4604460821FFF7A2FA10212046FFF79EFA2079082803D0092804D0042203E00422012501E009227E
:404DC0000025204600F05EFE264600204036307022712046FFF73CFE0398002D02D0012808D00BE001280AD120890022029903F063FD04E02189029803F07AFD01270020F4
:404E00003076012F04D0204601F004F805B0F0BD02983073204602F01DFC054605480121428B2046FFF754FA002DEFD109202071ECE70000FC14002070B50C460546FEF7D3
:404E4000E7FE012809D108212846FFF74CFA0023012221462846FFF79DFF70BD10B5044600F010FE2046FFF7F3FD00214034217010BD70B505461A24FEF7CAFE012809D1E3
:404E800008212846FFF72FFA0023012221462846FFF780FF70BD0000F8B50446002000900E4668460CF0F4F9002801D00D20F8BD8420005908212030009D00F02CFA204683
:404EC0000421383000F027FA002E02D1204600F03BFE2946204602F0FAFA0E480821428B2046FFF7F5F9204601F005F825464035002808D0204600F023F8002801D009206C
:404F000028700020F8BD08202870204601F06EF8F7E70000FC140020014610B540310A460978082906D0092907D00A2901D100F091F810BD0B20107010BD00F001F810BDA2
:404F400070B50446007925464035052805D0062803D008280FD00C2070BD03220621204602F04CFB0D480821428B2046FFF7B0F91120287010E006202873204602F06AFB8C
:404F80000646AA8A0A20424301212046FFF7A0F9002E01D109202071002070BDFC14002038B504460020009068460CF071F9002801D00D2038BD2046009D00F0C3F9082087
:404FC0002071204600F0C0FD2946204602F0B6FA00213D2001550F2040210855204601F005F8002038BD00B5024600F04BFD10214032117000BD10B50446FEF709FE012822
:4050000009D04020005D112805D100231A4606212046FFF7BFFE10BD10B5FFF786FE10BD38B504460021684600910CF031F900280CD12046009902F002FB05480821428B3C
:405040002046FFF745F90D204034207038BD0000FC14002038B504460021684600910CF017F9002801D00D2038BD2046009902F0DBFA05480821428B2046FFF729F90C20CF
:4050800040342070002038BDFC14002000787047F8B5002569460D70002801D0002400E01F4C002C18D0204600F0F5FC002813D0207903280BD005280CD026464036B18AE7
:4050C000A07801F097FDB078012806D01DE0042020711DE006202071F8BD0021204601F0F8FE274680373868002802D00CF03EF93D600020B0702079072802D12046FFF79E
:4051000001FD0221204600F08BFF20790428E3D1207A694608703420FEF736FBF8BD00006815002010B54C22115400F052F810BD10B50446FF21FFF7D6F809202071A07804
:4051400001F07EFD10BD000038B5FF216A461180002801D0002400E00B4C002C12D011460620FDF71DFB684601882046FFF72FFD204600F0C7FC002804D104480068C1690A
:405180002046884738BD000068150020800D002010B504468079002809D022214C200155FF212046FFF79FF8204600F012F810BD10B5037902464032002B03D01173092B7C
:4051C00002D003E0002100E02221117300F001F810BDFEB504460089002700902781207926464036002817D0012815D002280AD112E002AA01A9204601F03CFE002807D121
:4052000001980CF0A9F8204601F05CFE0028F0D02046FEF741FBB776254680352868002802D00CF0A3F82F606868002802D00CF09DF86F60317B002919D0009800F064F83F
:40524000A078002101F026F82046FFF773FAA07801F05AF9A07800F0CBFDFF212046FFF742F80B20FEF7A4FF00F0A8FCFEBD1F213173E2E7F8B517460E46054602F028FDBC
:4052800004003CD020460C3001F0E4F82046062200211830FCF7F2F92046062200211230FCF7ECF91648224600683946436A28469847074626702846FEF7AAFC0121484094
:4052C0006070002D10D02889608028464030C1782171002E0FD169796171018AE180418A2181808A608106E00648008BC005C00F2071002060803946204603F07CFAF8BDAA
:40530000640D002000102E400A4610B50146002003F08EFB10BD10B50BF030FD10BD000000B50146FFF7E0F9002801D0002000E00348002802D002898A4200D0002000BDD2
:405340006815002038B5044680346068002806D168460BF0ADFF002801D100986060606838BD000010B5014600F0C6FB0128887802D0FEF757FC10BD9021484302494018CE
:405380006030007F10BD00004815002070B5054604464035A87F012811D1A1789020084A484380186030067F3046FEF7EFFD002805D10220A877A078314601F05FF970BD45
:4053C0004815002010B50C4CA07A002813D0FEF789FE0A48027F417F408B00F0F7FB012809D10020A07200F0C1FF05498989090B01D000F03BFA10BD18160020481500204B
:40540000A0102E4070477047490510B5490F0B00FCF73EFB060704080C0C0F073E21FFF781FE10BD0821FFF7C3FE10BDFFF7D1FE10BDFFF7ADFE10BDF8B507460025002D5D
:4054400001D0002600E0204E00F03AFF3046403044890021418100F057FF304600F01BFB01282BD1A00702D52846FFF711FEE00602D52846FFF768FEA00601D5FEF732FE28
:40548000600601D500F054FB200602D5284600F01DF8600702D5284600F046FA380402D52846FFF713FB780402D52846FFF700FBE00703D021463046FFF7A6FF6D1C2D0600
:4054C0002D0EBCD0F8BD000068150020F8B5002801D0002400E0284C002C4BD025464035A878012846D1FF278820493700593E46002805D02149097B890601D5878AC68A12
:405500002046FEF785FB012834D002F0E5FB2A8A6179FFF719F9009001F014F900983346283081B23A46204602F026F9E98AA07801F0D6FA12480188688A124E002810D051
:4055400048431149FCF750F80004000C01D0401C80B27080A07DC107C90F002001F0A6FB01E000207080288A698A484381B2A07801F036FBF8BD000068150020FC1400202D
:4055800060112E403E0D0020710200000149096809680847800D002070B50D460026194A0146002801D0002401E014462034002C26D0204600F0A0FA01280AD190204843C1
:4055C00080186030007FFEF7E1FC002801D101F0C1FF0D48006881692046884700280CD020464030817EA94202D3491B817600E086762089294603F0BCF9204600F0F6FCD3
:4056000070BD000048150020800D002070B503460088FFF785FE040013D000F03CFA00280FD02079092819D02546997840352973204602F00FF80646A878012803D0AA8A55
:4056400002E0022070BDEA880A20424301212046FEF73EFE002E01D109202071002070BD0EB5002217216B460292198100905A810120029B00990BF019FF0EBDF8B518486F
:405680000024807A002822D1164E0025B089000B22E0204600F008FF1249A039401807882A462146384600F091FA012810D00E480122478305770A4944778A72002D01D0CA
:4056C000002000E02030002801D000F08FFCF8BDB089000B641CE4B20028DAD1F8BD000018160020A0102E404815002010B50088FFF716FE002809D0014640310C46097883
:40570000082905D00B2903D00C2010BD022010BDFFF716FC002801D009202070002010BD70B503460088FFF7FBFD040008D0254640352878082805D00B2803D00C2070BD29
:40574000022070BD8420005910220830991CFBF78CFF2046FFF7C6FA2878082804D02046FFF778FC002801D00A202870204600F03DFC002070BD000010B50C460021217051
:405780000088FFF7CDFD03000BD000F084F9002807D00948F121007B0840C00603D4112010BD022010BD022020701A8A1889002103F05AF9002010BDFC140020F8B50F462A
:4057C000002100910088FFF7ABFD040012D000F062F900280ED0E079410641D4617E02264A07002A08DB8907402500291ADA2843E07135E00220F8BD02F06AFA00210170DE
:4058000021894180A1898180217E4170E189C1803E7005460178134802F0F4FD284603F0C7F81DE0204600F06DF9012806D068460BF02EFD002803D00720F8BD2A20F8BDA5
:40584000E07900992843E071204601F02DFF607E0421304360760448428B2046FEF738FD0020F8BD1D040000FC1400203EB500220F236C46029223810091019062816946F7
:405880000EC900200BF012FE3EBD0000F8B50F46054600F02BFB04002AD000F007F900282AD003202071254600264035EE76E6702046FFF79DF901F0FFF80920FEF778FC98
:4058C000A07800F00FFE0121204600F0A9FB2E706E70AE703A4600212046FFF7CBFC0F49887B401C8873A078FFF750FE022012E0284601F0A5F9F8BD002001F0A1F908484A
:40590000008B4007800F012802D1064801F01CF901F0DCF80120FEF74BFCF8BD4815002000102E406C0D002010B5002801D0002000E0094800280DD0014640310A4649786E
:40594000022901D100215170807DC107C90F002001F0ACF910BD00006815002070B503460D460088FFF7DCFC04000BD000F093F8002807D01248F121007B0840C00603D44F
:40598000112070BD022070BD20464030418A008A491C41430804C10C5888884201D2122070BD20822079072802D12046FFF7AAF8022028702089002103F07EF8002070BDFC
:4059C000FC140020016A491C016204D1817E491C4906490E81767047C169491CC16104D1C17E491C4906490EC1767047F0B5074687B003A8009005A800260D460190002FAF
:405A000001D0002400E01B4C002C05D06846FBF78BFE002803D00BE0022007B0F0BD68460089C00704D1902200212046FBF726FE114829460068826820469047050016D12F
:405A4000A77066762746267140373E70204600F019F8204601F032FA084820820848BE77007BF121084000D001202075E682E8B2D3E7000068150020800D0020B80B000085
:405A8000FC140020002101628176C161C17620300177417770470079002805D0012803D0022801D001207047002070470F49008908820E49603108880D4A801F904210D202
:405AC0008888121F0A3890420BD20889FF21F431884206D8074800890006C00E401F0C2801D300207047012070470000A0102E407B0C0000E0112E404030807F002800D0C9
:405B00000120704740300078002807D0012805D0052803D00E2801D0012070470020704710B5807801F04AF9002800D0012010BD10B500F01BFC03498989090B01D0FFF716
:405B400095FE10BDA0102E4070B5054604464035A87F002825D1FF206075A0789021154A484380186030417F9023491CC9B24177A0785843104B8018DB896030994201D310
:405B800000214177A0789021484380186030467F0677A1783046FEF7F9F9002802D00120A87770BD0220A877A078314600F066FD70BD000048150020341600200020401CBE
:405BC0000006000EFBD0002070470000F0B516468207920F87B0000A02926A469080002E01D0002400E07F4C002C21D0084600F05BFC074668468088002810D002980328DF
:405C000017D0002000906846808821890491214620310391497F0546012964D067E07248381801882046FEF7D2FF304600F022FBD6E00020029002A80BF00AFB002807D081
:405C40003D20005D0128F3D12046FFF7BBFEC7E00298009068468388202B14D31F2300213846009AFCF790FC684680881F3885B2012305AA00213846FCF786FC6D1E2D04CB
:405C80002D0CF5D104E000213846009AFCF77CFC5548381801882046FEF799FF304600F0E9FA01AA21460098FEF764FD0028009805D00BF03DFB3D204C2108555EE0C67741
:405CC000009869460078898801F046FD00280099204602D001F064FA82E001F076FB00980BF026FB7CE0042820D3281F80B23F49097B890605D5882109594989814202D302
:405D000014E01B2812D9012305AA00213846FCF73BFC6D1E2D042D0CF5D10398407F012800D07CE72046FFF74DFE78E768460BF07FFA002802D0002007B0F0BD6846009D43
:405D400083882A1D00213846FCF71EFC2648381801882046FEF73BFF304600F08BFA2046FFF799FE002805D026464036307E00281DD107E028460BF0D1FA31E02046FFF740
:405D8000D7F92DE00298012809D0022807D00398407F0128EED12046FFF714FEEAE7034601AA21462846FEF71DFD002805D028460BF0B4FA3D203073E0E70298FEF716FF91
:405DC00001460498287004980901000A0843687068468088A870000AE8702846FFF740FC0120A9E76815002000102E40FC14002010B5074A917B002901D0491E91730021E1
:405E0000FFF7F4FD002801D0002010BD012010BD48150020F8B5074606464037B87F00282DD0B078902100904843234945186035287F0099FEF7BFF801281ED0287F401CB9
:405E4000C4B21E48C089A04200D800240020B877FF276F772F77A87702460146009800F07DFD717DFF2903D0304600F0E8FF777501F070FB0025114F19E00320B877F8BD6B
:405E800000200090224669463046FEF763FE0099002904D0FF231A463046FEF7A4F8641CF889E4B2A04200D800246D1CEDB2F889A842E5D8F8BD00004815002034160020CF
:405EC00010B502460021084B03E0002901D0002000E018460479944204D0491C0906090EF3D0002010BD00006815002000B50120FFF7E6FF00BD10B5044601F0E9FE2189E8
:405F0000018080346168416061682831816002F009FD10BDF7B50646087982B00C46092807D0A078F0770846FFF7E6FD012806D010E030460BF010FA022005B0F0BDA17848
:405F40009020294A484380186030007FFEF71EF8012810D0A078FEF73DFD01280BD037780121304601F09EFA25462035062F38D00B2F0FD107E06846027C21463046FEF7A1
:405F800019FE0D20D9E72046FDF742FE012801D1002028772046FFF7E5F9054604AA21463046FEF754FC01205F2108556946097C002001910090A07833463A46294600F050
:405FC00007FB69460A7CA0780323294600F04CFEA0782946FDF73EFC30460BF0BDF90020ABE70120D5E700004815002010B502464032937F0021002B03D1927E002A00D0E0
:406000000121064A927A002A00D000210279092A00D10121807800F069FE10BD1816002070B50C460546FDF7F3FD00280BD1012C06D92879092806D02846FFF771FD044642
:40604000002C02D004E0012402E0A87DC007FAD1A87DC107C90F204600F028FE70BD0000012807D0082804D104480282034808300180704701488038FAE70000A0102E4082
:40608000014908817047000000102E4010B50446FF20F130012C01D1FF20D530002200F057FE044A108A044980B2A0430880108210BD000000102E40420D0020034B198AF0
:4060C000034A89B2814311801982704700102E40420D002010B50446012802D0082C07D102E0FF20D53001E0FF20F13000F028FE0348018A034A89B221431180018210BD8E
:4061000000102E40420D0020034B198A034A89B2014311801982704700102E40420D0020F8B505460120A84086B214460F46012231467C2000F00CFE3A463146782000F04E
:4061400007FE6078267800020643E078A2780002024360792379000203430C2045430D2080010549281844182680001D44182280001D40180380F8BD00102E40401880B221
:4061800070470000CB065B0E0343480901021943D00108430121C902084301490881704780142E404278037812021343084A1382C37880781B021843908248780B78000290
:4061C00003431383C8788978000201439183704700142E40024A1080000C90801181704700142E40044A002180180288491C89B21029FAD37047000000102E40024A1082E2
:406200000148803081817047A0102E407047000010B5054A1082084600F0BEFD024A0021A03A8018018010BDA0102E4010B50B46044600F005F819462046FFF7DFFF10BD3A
:40624000024A10820148803001817047A0102E4010B504490882FF20002220211D3000F077FD10BDA0102E400149088070470000C0102E40000202494D3008807047000066
:4062800000102E400249888A0422904388827047C0112E4010B5084B074C0202A03B0029208202D075321A8010BD04490020088088807632F7E70000A0102E40201A2E40CC
:4062C00000B5034908884880FFF7F8FE00BD0000420D002010B50120FDF772FA01495020088010BD00102E4006490E220028888806D01043888003495120C039088070477D
:406300009043F7E7C0102E4000B502484088FFF7FBFE00BD420D002010B5FCF733FB10BD014952200880704700102E40884201D8081A03E00022D243101A401880B2704716
:4063400000210170704700000748808806492039098B884201D8081A03E00022D243101A401880B27047000020112E400148008AC0B27047A0102E4070B5084C049D208282
:40638000074804890548603006880E8001891180808818806007400F287070BDA0102E40E0112E400148008970470000C0102E4000280FD00D4A108B0870000A4870908B40
:4063C0008870000AC8700948203000880871000A48717047064A10880870000A487090888870000AC8701089F0E7000040102E40C0112E4000B5024A00F004F800BD0000BC
:40640000FF7F000000B51346FFF790FF984201D8022800D2002000BD0148008A70470000001A2E40024908820248008970470000A0102E40001A2E400148808870470000A0
:4064400020102E40024908820148803000887047A0102E40064B1A8999891B8A0270120A42708170090AC1700371190A4171704760102E40012904D00549098BC90B017020
:4064800070470349403109898907C90FF7E7000000102E40024908820248008970470000A0102E40201A2E40014840897047000034160020024908820248808970470000DB
:4064C000A0102E40001A2E40044A10820448028980894843101880B270470000A0102E40341600209021074B414300B5C918FF2260314A770A7700228A77114600F02EFA6F
:4065000000BD00004815002090225043074A10B58018FF21603041770177002181770448C18EFF201D3000F00BFC10BD48150020FC14002000B5044A108203488030808825
:40654000022200F003F800BDA0102E4010B50023884201D8081A03E00024E443201A4018044980B2884201D8824200D90123184610BD0000FF7F0000024880880006C00F11
:4065800070470000C0102E4002488089C007C00F70470000201A2E4070B55478157824022543D47888232602947834435679127936023243002900D0982304490882034813
:4065C000A038181805808480028170BDA0102E40FFB581B014460D4607460A9E0B9BFFF773FF002E0AD0009333460021049AFCF75BF805484019C45505B0F0BD0021049AAE
:40660000FCF738F8F5E70000460D002070B502460448054D808808242C800B460021FCF729F870BD34160020A0142E4010B521240246640104495320088010230021204605
:40664000FCF718F810BD000000102E40417802780902044B0A431A83C1788078090208439883704760142E40034A1082802001430148803001817047A0102E40054A108226
:40668000044A6032908B0009000108439115084390837047A0102E4030B500210F4B0A46012809D0032802D005280AD107E04021198102210A2204E004210C2201E004218C
:4066C0000D221882054C20342088C0B205460D42FAD022800021198230BD000080142E4010B5044607480482074801808280032189030820FFF7EEFC200202497530A03908
:40670000088010BDA0102E40201A2E40054A1082044A60321183000202494B30A039088070470000A0102E40054A491E1082044A60321183000202494C30A039088070474E
:40674000A0102E400349884200D908460249088070470000FF0F000060112E400349884200D908460249888070470000FF0F000060112E408823002900D0982308490882D9
:406780000748A038191808881070000A507088889070000AD07008891071000A50717047A0102E4010B51446024606480B46C0880021FBF745FF012C02D1034954200880AE
:4067C00010BD00003416002000102E40064A11880170090A417091888170090AC1700349542008807047000080142E4000102E400121814010B589B200227C2000F0A8FAC6
:4068000010BD0000FEB5FF210120FFF73FFCFF210820FFF73BFC3020FFF750FC4148802101804148414D00784007400F022873D001286FD100202880002211460320FBF763
:40684000AFFF3B4E3B49308E88823A4F002420373448A0300482B08F38822046FFF754FE641C2406240EF3D0314C3248403421882030018320462C3800F052F9B169706999
:406880000191009069464879C021084369464871684600F06DF900F055F8224FE088A03738832089B8831F496089C03188802148F18E203001802048002404823920FFF7BE
:4068C00023FC184E532030801C490720088354203080E020FFF786FCE820FFF783FCF020FFF780FC0020FDF725FF13488482282101838015B8810F48403084815B20308013
:40690000094800784007400F022807D0012801D10B482880FEBDFFE703208CE70848C01CF7E7000000102E4034160020001F2E40FC140020C0112E40001A2E4080142E4052
:40694000E0230000044800218183018302497420603908807047000060102E40074B1882064B6033988B00090001084399158843002A01D11021484098837047A0102E4024
:40698000F3B50D2284B0920100924A780B78120213430393CA788B78120213434A790979FF20120211431A4A8C46918B9E460291118B01911649742260390A801549002258
:4069C0000F7921E00121124B9140009C603BE3181D8889B21C881B88039E6E407546654064462E435C4026430CD1029B194209D00199D140CB070499DB0F8B4202D11046EE
:406A000006B0F0BD521CD2B29742DBD8F8E7000060102E403C15002030B50949FF208C8B084A00210125137905E02A468A40224204D0491CC9B28B42F7D830BD084630BDBA
:406A400060102E403C15002010B50446E020FFF7C9FB20782246401CC3B20021E020FBF7AFFD10BD42790021012A02D901214171090342790A430179042914D049001143AF
:406A8000827B032A01D8D2001143427B52010A43817909021143012252031143054A118300889083704711460122920211430222E5E7000000102E4000B50120FFF7FEFA62
:406AC00001494120088000BD00102E4000B50120FFF71AFB01494020088000BD00102E40024A10820148603081817047A0102E4010B5044C2082044881800281838151432D
:406B0000018210BDA0102E40A0132E40034B1882024820388180028070470000A0102E404178027809020A4306490A80C2788378120213438B8042790079120210430881B2
:406B400070470000C0112E404178027809020A4306490A81C2788378120213438B81427900791202104308827047000060102E40417802780902084B0A431A83C1788278A7
:406B800009020A439A8341790079090208430249203108807047000040102E404178027809020A4306498A80C2788378120213430B814279007912021043888170470000D4
:406BC000001F2E4010B50446E820FFF70BFB20782246401CC3B20021E820FBF7F1FC10BD024A10820248818370470000A0102E40001A2E40024A1082014860308180704757
:406C0000A0102E4010B5044688000521FAF702FC04490C8204498880200202497230A039088010BDA0102E40001A2E4003490882000202497330A03908807047A0102E407B
:406C400003490882000202497030A03908807047A0102E4003490882000202497130A03908807047A0102E40F8B505461C4617460E46084600F090F8054AB900214315824D
:406C8000034AA03A80180180024880194455F8BDA0102E404B0D0020034A118B8905890D8002084310837047A0102E4030B50E4C238A01251A46012804D0022804D00029F5
:406CC0000BD00CE02A430AE0002908D12A4322825008400020821A4601E05A0852009A4200D0228230BD0000001A2E40054A1082044A6032908B4023984389010143918373
:406D000070470000A0102E40044A118A0223002801D0194300E0994311827047001A2E4000B5064A1082054860300181002901D0012000E00020FFF7E7FF00BDA0102E40C5
:406D4000024A801802880A430280704700102E4070B5084BC5182C880023080003D104E040085B1C9BB2C607FAD08C439A4022432A8070BD00102E40024A1018405C800718
:406D8000800F70474B0D0020024908820148803080897047A0102E408000FF3041307047044B02461B8AFF208B4202D902484018805C704734160020460D002002490882A8
:406DC0000148803000897047A0102E40174902460B680020002B08D10A605207520F012A04D0022A10D0086012207047112292018A80CA80032252020A810122D2024A819D
:406E000040228A8105220DE0092252028A80CA80012252030A810322D2024A81012252028A810422CA810A8270470000341600200A4600B501461046FFF7B2FF00BD38B5A4
:406E40000C4605460021684600910AF021FA002804D1009928464C7000F018FC38BD10B5044680780021FFF73BFE01212046FFF7D7F810BD436E002B0CD00B6001466031DB
:406E80008B781370826E4266CA788A700021816608467047FF20704710B50346446E6033002C04D0846E002C04D0FF2010BD41669A7001E08166DA70002010BD00214166EC
:406EC00081667047406E002801D000207047FF20704770B50446C0790D46810610D5DF210840E07100F0F4FE0570218941804034218A8180618AC180A18A018101F04EFCAA
:406F000070BD000010B50446FEF7F6FD01280AD1A1789020054A484380186030007FFDF735F8012801D000F015FB10BD48150020F8B50E460446FCF76BFE01282BD0207916
:406F4000042801D0072825D1F079B77900020743A0783946FFF7EEFA25464035012820D03A46711C204600F09EFA02212046FDF77AFDA07DC107C90F0220FFF797FE688A51
:406F8000002807D0E87E002804D1032109020820FFF7A0F8F8BD01222421204600F02EFBF8BD282028732046FEF7C2F8F8BD70B50D460646FDF7CAFC002852D1202130460C
:406FC000FDF791F93446687840346073E87820220002E081A9780843E0816879010228790843218A814203D0F1791143F1712082E8790102A8790843618A814203D0F17912
:407000001143F1716082687A0102287A0843A18AE180814203D0F1791143F171A082A08A218A8000FAF7F6F9401E618A80B2814200D9608201213046FDF718FDE87AA97A2E
:40704000000201430022304600F048FB608A002807D0E07E002804D1032109020820FFF739F870BDF8B50C4605460027FCF7D0FD012847D0284E307BC00709D02846403000
:4070800000900078002806D0102803D01F212CE01A212AE001272846FEF754F9002823D02E4680360822611C7068FAF7DEFA7068617A20300172A17A4172706821461830FE
:4070C00008220B31FAF7D1FA21462846042213313430FAF7CAFA39462846FDF7DDFE002810D1002F0FD012E007210322284600F085FA728B08212846FDF7EAF8112128461D
:40710000FDF7B7FCF8BD06212846FDF7B5FC009801210176F8BD0000FC14002010B5FDF7FBFE10BDF8B504460020009020790D46032803D0042801D0072825D12046FCF718
:4071400067FD012821D068460AF0A2F800281BD111486978007B009E0840F12108402075FAF77EF8C0B2022803D0207D4006400E2075607E0821084360763146204600F020
:40718000C1F92046FDF7BBFCF8BD08222421204600F034FAF8BD0000FC14002070470000F3B581B004460298FDF770FF06462046FEF771FC00282FD0162E04D32046029949
:4071C00000F003F928E025464035287800270300FAF75EFC0E1B1B1B08081B1B1B0808080808081B0298194A01780020135C8B4201D1012702E0401C0728F7D3E87E00280A
:4072000001D1072901D0002F0AD01049B00008310A5820460299904702980AF089F8FEBDA078FFF70DFD002301223D212046FDF7B1FD3D2028732046FFF711FE02980AF06B
